{
  "_format": "hh-sol-artifact-1",
  "contractName": "Test",
  "sourceName": "src/backend/contracts/Test.sol",
  "abi": [
    {
      "inputs": [],
      "name": "Mid",
      "outputs": [
        {
          "internalType": "bool",
          "name": "",
          "type": "bool"
        }
      ],
      "stateMutability": "view",
      "type": "function"
    },
    {
      "inputs": [
        {
          "internalType": "uint256",
          "name": "",
          "type": "uint256"
        }
      ],
      "name": "Orders",
      "outputs": [
        {
          "internalType": "uint64",
          "name": "id",
          "type": "uint64"
        },
        {
          "internalType": "address",
          "name": "producer",
          "type": "address"
        },
        {
          "internalType": "address",
          "name": "holder",
          "type": "address"
        },
        {
          "internalType": "address",
          "name": "consumer",
          "type": "address"
        },
        {
          "internalType": "bool",
          "name": "delivered",
          "type": "bool"
        },
        {
          "internalType": "string",
          "name": "status",
          "type": "string"
        },
        {
          "internalType": "string",
          "name": "timestamp",
          "type": "string"
        }
      ],
      "stateMutability": "view",
      "type": "function"
    },
    {
      "inputs": [],
      "name": "Prod",
      "outputs": [
        {
          "internalType": "bool",
          "name": "",
          "type": "bool"
        }
      ],
      "stateMutability": "view",
      "type": "function"
    },
    {
      "inputs": [
        {
          "internalType": "uint256",
          "name": "_x",
          "type": "uint256"
        }
      ],
      "name": "add",
      "outputs": [
        {
          "internalType": "uint256",
          "name": "",
          "type": "uint256"
        }
      ],
      "stateMutability": "nonpayable",
      "type": "function"
    },
    {
      "inputs": [
        {
          "internalType": "uint64",
          "name": "_id",
          "type": "uint64"
        },
        {
          "internalType": "string",
          "name": "_timestamp",
          "type": "string"
        }
      ],
      "name": "deliveredOrder",
      "outputs": [],
      "stateMutability": "nonpayable",
      "type": "function"
    },
    {
      "inputs": [],
      "name": "makeMiddleMan",
      "outputs": [],
      "stateMutability": "nonpayable",
      "type": "function"
    },
    {
      "inputs": [],
      "name": "makeProducer",
      "outputs": [],
      "stateMutability": "nonpayable",
      "type": "function"
    },
    {
      "inputs": [],
      "name": "orderCount",
      "outputs": [
        {
          "internalType": "uint64",
          "name": "",
          "type": "uint64"
        }
      ],
      "stateMutability": "view",
      "type": "function"
    },
    {
      "inputs": [
        {
          "internalType": "uint64",
          "name": "_id",
          "type": "uint64"
        },
        {
          "internalType": "string",
          "name": "_timestamp",
          "type": "string"
        }
      ],
      "name": "passOrder",
      "outputs": [],
      "stateMutability": "nonpayable",
      "type": "function"
    },
    {
      "inputs": [
        {
          "internalType": "address",
          "name": "_consumer",
          "type": "address"
        },
        {
          "internalType": "string",
          "name": "_timestamp",
          "type": "string"
        }
      ],
      "name": "placeOrder",
      "outputs": [],
      "stateMutability": "nonpayable",
      "type": "function"
    }
  ],
  "bytecode": "0x608060405234801561001057600080fd5b50611313806100206000396000f3fe608060405234801561001057600080fd5b506004361061009e5760003560e01c806379307a471161006657806379307a47146101495780638a1367f6146101655780638fb326f21461016f578063ab80ff76146101a5578063fe2560a1146101c15761009e565b80631003e2d2146100a357806318d670d3146100d35780632453ffa8146100f1578063410ea7481461010f57806362d239ae1461012d575b600080fd5b6100bd60048036038101906100b89190610d06565b6101cb565b6040516100ca9190610d42565b60405180910390f35b6100db6101e1565b6040516100e89190610d78565b60405180910390f35b6100f9610235565b6040516101069190610db6565b60405180910390f35b61011761024d565b6040516101249190610d78565b60405180910390f35b61014760048036038101906101429190610f43565b6102a1565b005b610163600480360381019061015e9190610ffd565b61043e565b005b61016d6107e8565b005b61018960048036038101906101849190610d06565b610842565b60405161019c97969594939291906110f0565b60405180910390f35b6101bf60048036038101906101ba9190610f43565b610a25565b005b6101c9610bbf565b005b60008160646101da919061119c565b9050919050565b6000600360003373ffffffffffffffffffffffffffffffffffffffff1673ffffffffffffffffffffffffffffffffffffffff16815260200190815260200160002060009054906101000a900460ff16905090565b60008054906101000a900467ffffffffffffffff1681565b6000600260003373ffffffffffffffffffffffffffffffffffffffff1673ffffffffffffffffffffffffffffffffffffffff16815260200190815260200160002060009054906101000a900460ff16905090565b81806102ac906111f2565b92505060018267ffffffffffffffff16815481106102cd576102cc61121c565b5b906000526020600020906005020160020160009054906101000a900473ffffffffffffffffffffffffffffffffffffffff1673ffffffffffffffffffffffffffffffffffffffff163373ffffffffffffffffffffffffffffffffffffffff161461033657600080fd5b6001808367ffffffffffffffff16815481106103555761035461121c565b5b906000526020600020906005020160020160146101000a81548160ff0219169083151502179055506040518060400160405280601881526020017f4f7264657220486173204265656e2044656c697665726564000000000000000081525060018367ffffffffffffffff16815481106103d1576103d061121c565b5b906000526020600020906005020160030190805190602001906103f5929190610c19565b508060018367ffffffffffffffff16815481106104155761041461121c565b5b90600052602060002090600502016004019080519060200190610439929190610c19565b505050565b60011515600260003373ffffffffffffffffffffffffffffffffffffffff1673ffffffffffffffffffffffffffffffffffffffff16815260200190815260200160002060009054906101000a900460ff1615151461049b57600080fd5b60008081819054906101000a900467ffffffffffffffff16809291906104c09061124b565b91906101000a81548167ffffffffffffffff021916908367ffffffffffffffff1602179055505060016040518060e0016040528060008054906101000a900467ffffffffffffffff1667ffffffffffffffff1681526020013373ffffffffffffffffffffffffffffffffffffffff1681526020013373ffffffffffffffffffffffffffffffffffffffff1681526020018473ffffffffffffffffffffffffffffffffffffffff1681526020016000151581526020016040518060400160405280600e81526020017f4f72646572204163636570746564000000000000000000000000000000000000815250815260200183815250908060018154018082558091505060019003906000526020600020906005020160009091909190915060008201518160000160006101000a81548167ffffffffffffffff021916908367ffffffffffffffff16021790555060208201518160000160086101000a81548173ffffffffffffffffffffffffffffffffffffffff021916908373ffffffffffffffffffffffffffffffffffffffff16021790555060408201518160010160006101000a81548173ffffffffffffffffffffffffffffffffffffffff021916908373ffffffffffffffffffffffffffffffffffffffff16021790555060608201518160020160006101000a81548173ffffffffffffffffffffffffffffffffffffffff021916908373ffffffffffffffffffffffffffffffffffffffff16021790555060808201518160020160146101000a81548160ff02191690831515021790555060a082015181600301908051906020019061071d929190610c19565b5060c082015181600401908051906020019061073a929190610c19565b505050600460008373ffffffffffffffffffffffffffffffffffffffff1673ffffffffffffffffffffffffffffffffffffffff16815260200190815260200160002060008054906101000a900467ffffffffffffffff1690806001815401808255809150506001900390600052602060002090600491828204019190066008029091909190916101000a81548167ffffffffffffffff021916908367ffffffffffffffff1602179055505050565b6001600260003373ffffffffffffffffffffffffffffffffffffffff1673ffffffffffffffffffffffffffffffffffffffff16815260200190815260200160002060006101000a81548160ff021916908315150217905550565b6001818154811061085257600080fd5b90600052602060002090600502016000915090508060000160009054906101000a900467ffffffffffffffff16908060000160089054906101000a900473ffffffffffffffffffffffffffffffffffffffff16908060010160009054906101000a900473ffffffffffffffffffffffffffffffffffffffff16908060020160009054906101000a900473ffffffffffffffffffffffffffffffffffffffff16908060020160149054906101000a900460ff1690806003018054610914906112ab565b80601f0160208091040260200160405190810160405280929190818152602001828054610940906112ab565b801561098d5780601f106109625761010080835404028352916020019161098d565b820191906000526020600020905b81548152906001019060200180831161097057829003601f168201915b5050505050908060040180546109a2906112ab565b80601f01602080910402602001604051908101604052809291908181526020018280546109ce906112ab565b8015610a1b5780601f106109f057610100808354040283529160200191610a1b565b820191906000526020600020905b8154815290600101906020018083116109fe57829003601f168201915b5050505050905087565b60011515600360003373ffffffffffffffffffffffffffffffffffffffff1673ffffffffffffffffffffffffffffffffffffffff16815260200190815260200160002060009054906101000a900460ff16151514610a8257600080fd5b8180610a8d906111f2565b9250503360018367ffffffffffffffff1681548110610aaf57610aae61121c565b5b906000526020600020906005020160010160006101000a81548173ffffffffffffffffffffffffffffffffffffffff021916908373ffffffffffffffffffffffffffffffffffffffff1602179055506040518060400160405280601881526020017f4f72646572204973204265696e672044656c697665726564000000000000000081525060018367ffffffffffffffff1681548110610b5257610b5161121c565b5b90600052602060002090600502016003019080519060200190610b76929190610c19565b508060018367ffffffffffffffff1681548110610b9657610b9561121c565b5b90600052602060002090600502016004019080519060200190610bba929190610c19565b505050565b6001600360003373ffffffffffffffffffffffffffffffffffffffff1673ffffffffffffffffffffffffffffffffffffffff16815260200190815260200160002060006101000a81548160ff021916908315150217905550565b828054610c25906112ab565b90600052602060002090601f016020900481019282610c475760008555610c8e565b82601f10610c6057805160ff1916838001178555610c8e565b82800160010185558215610c8e579182015b82811115610c8d578251825591602001919060010190610c72565b5b509050610c9b9190610c9f565b5090565b5b80821115610cb8576000816000905550600101610ca0565b5090565b6000604051905090565b600080fd5b600080fd5b6000819050919050565b610ce381610cd0565b8114610cee57600080fd5b50565b600081359050610d0081610cda565b92915050565b600060208284031215610d1c57610d1b610cc6565b5b6000610d2a84828501610cf1565b91505092915050565b610d3c81610cd0565b82525050565b6000602082019050610d576000830184610d33565b92915050565b60008115159050919050565b610d7281610d5d565b82525050565b6000602082019050610d8d6000830184610d69565b92915050565b600067ffffffffffffffff82169050919050565b610db081610d93565b82525050565b6000602082019050610dcb6000830184610da7565b92915050565b610dda81610d93565b8114610de557600080fd5b50565b600081359050610df781610dd1565b92915050565b600080fd5b600080fd5b6000601f19601f8301169050919050565b7f4e487b7100000000000000000000000000000000000000000000000000000000600052604160045260246000fd5b610e5082610e07565b810181811067ffffffffffffffff82111715610e6f57610e6e610e18565b5b80604052505050565b6000610e82610cbc565b9050610e8e8282610e47565b919050565b600067ffffffffffffffff821115610eae57610ead610e18565b5b610eb782610e07565b9050602081019050919050565b82818337600083830152505050565b6000610ee6610ee184610e93565b610e78565b905082815260208101848484011115610f0257610f01610e02565b5b610f0d848285610ec4565b509392505050565b600082601f830112610f2a57610f29610dfd565b5b8135610f3a848260208601610ed3565b91505092915050565b60008060408385031215610f5a57610f59610cc6565b5b6000610f6885828601610de8565b925050602083013567ffffffffffffffff811115610f8957610f88610ccb565b5b610f9585828601610f15565b9150509250929050565b600073ffffffffffffffffffffffffffffffffffffffff82169050919050565b6000610fca82610f9f565b9050919050565b610fda81610fbf565b8114610fe557600080fd5b50565b600081359050610ff781610fd1565b92915050565b6000806040838503121561101457611013610cc6565b5b600061102285828601610fe8565b925050602083013567ffffffffffffffff81111561104357611042610ccb565b5b61104f85828601610f15565b9150509250929050565b61106281610fbf565b82525050565b600081519050919050565b600082825260208201905092915050565b60005b838110156110a2578082015181840152602081019050611087565b838111156110b1576000848401525b50505050565b60006110c282611068565b6110cc8185611073565b93506110dc818560208601611084565b6110e581610e07565b840191505092915050565b600060e082019050611105600083018a610da7565b6111126020830189611059565b61111f6040830188611059565b61112c6060830187611059565b6111396080830186610d69565b81810360a083015261114b81856110b7565b905081810360c083015261115f81846110b7565b905098975050505050505050565b7f4e487b7100000000000000000000000000000000000000000000000000000000600052601160045260246000fd5b60006111a782610cd0565b91506111b283610cd0565b9250827fffffffffffffffffffffffffffffffffffffffffffffffffffffffffffffffff038211156111e7576111e661116d565b5b828201905092915050565b60006111fd82610d93565b915060008214156112115761121061116d565b5b600182039050919050565b7f4e487b7100000000000000000000000000000000000000000000000000000000600052603260045260246000fd5b600061125682610d93565b915067ffffffffffffffff8214156112715761127061116d565b5b600182019050919050565b7f4e487b7100000000000000000000000000000000000000000000000000000000600052602260045260246000fd5b600060028204905060018216806112c357607f821691505b602082108114156112d7576112d661127c565b5b5091905056fea2646970667358221220770126c5d47d2b64c228d553ff05cd1e21088a910b516e2222c90a350fb8f09964736f6c634300080a0033",
  "linkReferences": {},
  "deployedLinkReferences": {}
}