{
  "_format": "hh-sol-artifact-1",
  "contractName": "Test",
  "sourceName": "src/backend/contracts/Test.sol",
  "abi": [
    {
      "inputs": [],
      "name": "Mid",
      "outputs": [
        {
          "internalType": "bool",
          "name": "",
          "type": "bool"
        }
      ],
      "stateMutability": "view",
      "type": "function"
    },
    {
      "inputs": [
        {
          "internalType": "uint256",
          "name": "",
          "type": "uint256"
        }
      ],
      "name": "Orders",
      "outputs": [
        {
          "internalType": "uint64",
          "name": "id",
          "type": "uint64"
        },
        {
          "internalType": "address",
          "name": "producer",
          "type": "address"
        },
        {
          "internalType": "address",
          "name": "holder",
          "type": "address"
        },
        {
          "internalType": "address",
          "name": "consumer",
          "type": "address"
        },
        {
          "internalType": "string",
          "name": "status",
          "type": "string"
        },
        {
          "internalType": "string",
          "name": "timestamp",
          "type": "string"
        }
      ],
      "stateMutability": "view",
      "type": "function"
    },
    {
      "inputs": [],
      "name": "Prod",
      "outputs": [
        {
          "internalType": "bool",
          "name": "",
          "type": "bool"
        }
      ],
      "stateMutability": "view",
      "type": "function"
    },
    {
      "inputs": [
        {
          "internalType": "uint64",
          "name": "_id",
          "type": "uint64"
        },
        {
          "internalType": "string",
          "name": "_timestamp",
          "type": "string"
        }
      ],
      "name": "acceptOrder",
      "outputs": [],
      "stateMutability": "nonpayable",
      "type": "function"
    },
    {
      "inputs": [
        {
          "internalType": "uint64",
          "name": "_id",
          "type": "uint64"
        },
        {
          "internalType": "string",
          "name": "_timestamp",
          "type": "string"
        }
      ],
      "name": "deliveredOrder",
      "outputs": [],
      "stateMutability": "nonpayable",
      "type": "function"
    },
    {
      "inputs": [],
      "name": "makeMiddleMan",
      "outputs": [],
      "stateMutability": "nonpayable",
      "type": "function"
    },
    {
      "inputs": [],
      "name": "makeProducer",
      "outputs": [],
      "stateMutability": "nonpayable",
      "type": "function"
    },
    {
      "inputs": [],
      "name": "orderCount",
      "outputs": [
        {
          "internalType": "uint64",
          "name": "",
          "type": "uint64"
        }
      ],
      "stateMutability": "view",
      "type": "function"
    },
    {
      "inputs": [
        {
          "internalType": "uint64",
          "name": "_id",
          "type": "uint64"
        },
        {
          "internalType": "string",
          "name": "_timestamp",
          "type": "string"
        }
      ],
      "name": "passOrder",
      "outputs": [],
      "stateMutability": "nonpayable",
      "type": "function"
    },
    {
      "inputs": [
        {
          "internalType": "address",
          "name": "_producer",
          "type": "address"
        },
        {
          "internalType": "string",
          "name": "_timestamp",
          "type": "string"
        }
      ],
      "name": "placeOrder",
      "outputs": [],
      "stateMutability": "nonpayable",
      "type": "function"
    }
  ],
  "bytecode": "0x608060405234801561001057600080fd5b5061126e806100206000396000f3fe608060405234801561001057600080fd5b506004361061009e5760003560e01c80638a1367f6116100665780638a1367f6146101355780638fb326f21461013f578063ab80ff7614610174578063c85688f114610190578063fe2560a1146101ac5761009e565b806318d670d3146100a35780632453ffa8146100c1578063410ea748146100df57806362d239ae146100fd57806379307a4714610119575b600080fd5b6100ab6101b6565b6040516100b89190610cc0565b60405180910390f35b6100c961020a565b6040516100d69190610cfe565b60405180910390f35b6100e7610222565b6040516100f49190610cc0565b60405180910390f35b61011760048036038101906101129190610e9f565b610276565b005b610133600480360381019061012e9190610f59565b6103cc565b005b61013d61064a565b005b61015960048036038101906101549190610feb565b6106a4565b60405161016b969594939291906110af565b60405180910390f35b61018e60048036038101906101899190610e9f565b610874565b005b6101aa60048036038101906101a59190610e9f565b610a0e565b005b6101b4610ba8565b005b6000600360003373ffffffffffffffffffffffffffffffffffffffff1673ffffffffffffffffffffffffffffffffffffffff16815260200190815260200160002060009054906101000a900460ff16905090565b60008054906101000a900467ffffffffffffffff1681565b6000600260003373ffffffffffffffffffffffffffffffffffffffff1673ffffffffffffffffffffffffffffffffffffffff16815260200190815260200160002060009054906101000a900460ff16905090565b81806102819061114d565b92505060018267ffffffffffffffff16815481106102a2576102a1611177565b5b906000526020600020906005020160020160009054906101000a900473ffffffffffffffffffffffffffffffffffffffff1673ffffffffffffffffffffffffffffffffffffffff163373ffffffffffffffffffffffffffffffffffffffff161461030b57600080fd5b6040518060400160405280601881526020017f4f7264657220486173204265656e2044656c697665726564000000000000000081525060018367ffffffffffffffff168154811061035f5761035e611177565b5b90600052602060002090600502016003019080519060200190610383929190610c02565b508060018367ffffffffffffffff16815481106103a3576103a2611177565b5b906000526020600020906005020160040190805190602001906103c7929190610c02565b505050565b60008081819054906101000a900467ffffffffffffffff16809291906103f1906111a6565b91906101000a81548167ffffffffffffffff021916908367ffffffffffffffff1602179055505060016040518060c0016040528060008054906101000a900467ffffffffffffffff1667ffffffffffffffff1681526020018473ffffffffffffffffffffffffffffffffffffffff168152602001600073ffffffffffffffffffffffffffffffffffffffff1681526020013373ffffffffffffffffffffffffffffffffffffffff1681526020016040518060400160405280600c81526020017f506c61636564204f726465720000000000000000000000000000000000000000815250815260200183815250908060018154018082558091505060019003906000526020600020906005020160009091909190915060008201518160000160006101000a81548167ffffffffffffffff021916908367ffffffffffffffff16021790555060208201518160000160086101000a81548173ffffffffffffffffffffffffffffffffffffffff021916908373ffffffffffffffffffffffffffffffffffffffff16021790555060408201518160010160006101000a81548173ffffffffffffffffffffffffffffffffffffffff021916908373ffffffffffffffffffffffffffffffffffffffff16021790555060608201518160020160006101000a81548173ffffffffffffffffffffffffffffffffffffffff021916908373ffffffffffffffffffffffffffffffffffffffff1602179055506080820151816003019080519060200190610626929190610c02565b5060a0820151816004019080519060200190610643929190610c02565b5050505050565b6001600260003373ffffffffffffffffffffffffffffffffffffffff1673ffffffffffffffffffffffffffffffffffffffff16815260200190815260200160002060006101000a81548160ff021916908315150217905550565b600181815481106106b457600080fd5b90600052602060002090600502016000915090508060000160009054906101000a900467ffffffffffffffff16908060000160089054906101000a900473ffffffffffffffffffffffffffffffffffffffff16908060010160009054906101000a900473ffffffffffffffffffffffffffffffffffffffff16908060020160009054906101000a900473ffffffffffffffffffffffffffffffffffffffff169080600301805461076390611206565b80601f016020809104026020016040519081016040528092919081815260200182805461078f90611206565b80156107dc5780601f106107b1576101008083540402835291602001916107dc565b820191906000526020600020905b8154815290600101906020018083116107bf57829003601f168201915b5050505050908060040180546107f190611206565b80601f016020809104026020016040519081016040528092919081815260200182805461081d90611206565b801561086a5780601f1061083f5761010080835404028352916020019161086a565b820191906000526020600020905b81548152906001019060200180831161084d57829003601f168201915b5050505050905086565b60011515600360003373ffffffffffffffffffffffffffffffffffffffff1673ffffffffffffffffffffffffffffffffffffffff16815260200190815260200160002060009054906101000a900460ff161515146108d157600080fd5b81806108dc9061114d565b9250503360018367ffffffffffffffff16815481106108fe576108fd611177565b5b906000526020600020906005020160010160006101000a81548173ffffffffffffffffffffffffffffffffffffffff021916908373ffffffffffffffffffffffffffffffffffffffff1602179055506040518060400160405280601881526020017f4f72646572204973204265696e672044656c697665726564000000000000000081525060018367ffffffffffffffff16815481106109a1576109a0611177565b5b906000526020600020906005020160030190805190602001906109c5929190610c02565b508060018367ffffffffffffffff16815481106109e5576109e4611177565b5b90600052602060002090600502016004019080519060200190610a09929190610c02565b505050565b60011515600260003373ffffffffffffffffffffffffffffffffffffffff1673ffffffffffffffffffffffffffffffffffffffff16815260200190815260200160002060009054906101000a900460ff16151514610a6b57600080fd5b8180610a769061114d565b9250503360018367ffffffffffffffff1681548110610a9857610a97611177565b5b906000526020600020906005020160010160006101000a81548173ffffffffffffffffffffffffffffffffffffffff021916908373ffffffffffffffffffffffffffffffffffffffff1602179055506040518060400160405280600e81526020017f4163636570746564204f7264657200000000000000000000000000000000000081525060018367ffffffffffffffff1681548110610b3b57610b3a611177565b5b90600052602060002090600502016003019080519060200190610b5f929190610c02565b508060018367ffffffffffffffff1681548110610b7f57610b7e611177565b5b90600052602060002090600502016004019080519060200190610ba3929190610c02565b505050565b6001600360003373ffffffffffffffffffffffffffffffffffffffff1673ffffffffffffffffffffffffffffffffffffffff16815260200190815260200160002060006101000a81548160ff021916908315150217905550565b828054610c0e90611206565b90600052602060002090601f016020900481019282610c305760008555610c77565b82601f10610c4957805160ff1916838001178555610c77565b82800160010185558215610c77579182015b82811115610c76578251825591602001919060010190610c5b565b5b509050610c849190610c88565b5090565b5b80821115610ca1576000816000905550600101610c89565b5090565b60008115159050919050565b610cba81610ca5565b82525050565b6000602082019050610cd56000830184610cb1565b92915050565b600067ffffffffffffffff82169050919050565b610cf881610cdb565b82525050565b6000602082019050610d136000830184610cef565b92915050565b6000604051905090565b600080fd5b600080fd5b610d3681610cdb565b8114610d4157600080fd5b50565b600081359050610d5381610d2d565b92915050565b600080fd5b600080fd5b6000601f19601f8301169050919050565b7f4e487b7100000000000000000000000000000000000000000000000000000000600052604160045260246000fd5b610dac82610d63565b810181811067ffffffffffffffff82111715610dcb57610dca610d74565b5b80604052505050565b6000610dde610d19565b9050610dea8282610da3565b919050565b600067ffffffffffffffff821115610e0a57610e09610d74565b5b610e1382610d63565b9050602081019050919050565b82818337600083830152505050565b6000610e42610e3d84610def565b610dd4565b905082815260208101848484011115610e5e57610e5d610d5e565b5b610e69848285610e20565b509392505050565b600082601f830112610e8657610e85610d59565b5b8135610e96848260208601610e2f565b91505092915050565b60008060408385031215610eb657610eb5610d23565b5b6000610ec485828601610d44565b925050602083013567ffffffffffffffff811115610ee557610ee4610d28565b5b610ef185828601610e71565b9150509250929050565b600073ffffffffffffffffffffffffffffffffffffffff82169050919050565b6000610f2682610efb565b9050919050565b610f3681610f1b565b8114610f4157600080fd5b50565b600081359050610f5381610f2d565b92915050565b60008060408385031215610f7057610f6f610d23565b5b6000610f7e85828601610f44565b925050602083013567ffffffffffffffff811115610f9f57610f9e610d28565b5b610fab85828601610e71565b9150509250929050565b6000819050919050565b610fc881610fb5565b8114610fd357600080fd5b50565b600081359050610fe581610fbf565b92915050565b60006020828403121561100157611000610d23565b5b600061100f84828501610fd6565b91505092915050565b61102181610f1b565b82525050565b600081519050919050565b600082825260208201905092915050565b60005b83811015611061578082015181840152602081019050611046565b83811115611070576000848401525b50505050565b600061108182611027565b61108b8185611032565b935061109b818560208601611043565b6110a481610d63565b840191505092915050565b600060c0820190506110c46000830189610cef565b6110d16020830188611018565b6110de6040830187611018565b6110eb6060830186611018565b81810360808301526110fd8185611076565b905081810360a08301526111118184611076565b9050979650505050505050565b7f4e487b7100000000000000000000000000000000000000000000000000000000600052601160045260246000fd5b600061115882610cdb565b9150600082141561116c5761116b61111e565b5b600182039050919050565b7f4e487b7100000000000000000000000000000000000000000000000000000000600052603260045260246000fd5b60006111b182610cdb565b915067ffffffffffffffff8214156111cc576111cb61111e565b5b600182019050919050565b7f4e487b7100000000000000000000000000000000000000000000000000000000600052602260045260246000fd5b6000600282049050600182168061121e57607f821691505b60208210811415611232576112316111d7565b5b5091905056fea26469706673582212204e066790ab5a6ad400956fd7382c74126b1f0f8d3e284ce62f7c98e83334713864736f6c634300080a0033",
  "linkReferences": {},
  "deployedLinkReferences": {}
}