{
  "_format": "hh-sol-artifact-1",
  "contractName": "Test",
  "sourceName": "src/backend/contracts/Test.sol",
  "abi": [
    {
      "inputs": [
        {
          "internalType": "uint256",
          "name": "_x",
          "type": "uint256"
        }
      ],
      "name": "add",
      "outputs": [
        {
          "internalType": "uint256",
          "name": "",
          "type": "uint256"
        }
      ],
      "stateMutability": "view",
      "type": "function"
    },
    {
      "inputs": [],
      "name": "test",
      "outputs": [
        {
          "internalType": "uint256",
          "name": "",
          "type": "uint256"
        }
      ],
      "stateMutability": "view",
      "type": "function"
    }
  ],
  "bytecode": "0x6080604052606460005534801561001557600080fd5b506101f3806100256000396000f3fe608060405234801561001057600080fd5b50600436106100365760003560e01c80631003e2d21461003b578063f8a8fd6d1461006b575b600080fd5b610055600480360381019061005091906100e1565b610089565b604051610062919061011d565b60405180910390f35b6100736100a0565b604051610080919061011d565b60405180910390f35b6000816000546100999190610167565b9050919050565b60005481565b600080fd5b6000819050919050565b6100be816100ab565b81146100c957600080fd5b50565b6000813590506100db816100b5565b92915050565b6000602082840312156100f7576100f66100a6565b5b6000610105848285016100cc565b91505092915050565b610117816100ab565b82525050565b6000602082019050610132600083018461010e565b92915050565b7f4e487b7100000000000000000000000000000000000000000000000000000000600052601160045260246000fd5b6000610172826100ab565b915061017d836100ab565b9250827fffffffffffffffffffffffffffffffffffffffffffffffffffffffffffffffff038211156101b2576101b1610138565b5b82820190509291505056fea26469706673582212202e23169270dba811aece6dbb4ec04436a65557053f3b3902cc199287cf79c92d64736f6c634300080a0033",
  "linkReferences": {},
  "deployedLinkReferences": {}
}